:020000040800F2
:10000000C80A0020ED280008B5040008B70400085D
:10001000BB040008BF040008C3040008000000007F
:10002000000000000000000000000000C7040008FD
:10003000C904000800000000CB040008CD0400083B
:1000400007290008072900080729000807290008D0
:100050000729000807290008072900085707000892
:10006000CF09000807290008072900080729000808
:1000700007290008072900080729000807290008A0
:100080000729000807290008072900080729000890
:100090000729000807290008072900080729000880
:1000A0000729000807290008072900080729000870
:1000B00007290008FF0D0008072900080729000884
:1000C0000729000807290008072900080729000850
:1000D0000729000807290008730B000807290008F2
:1000E000DD0800080729000807290008072900087B
:1000F0000729000807290008072900080729000820
:10010000072900080729000807290008072900080F
:1001100007290008072900080729000807290008FF
:1001200007290008072900080729000807290008EF
:1001300000F002F800F04DF80AA090E8000C8244AC
:100140008344AAF10107DA4501D100F042F8AFF289
:10015000090EBAE80F0013F0010F18BFFB1A43F0A5
:1001600001031847E065000000660000103A24BF54
:1001700078C878C1FAD8520724BF30C830C144BF0C
:1001800004680C607047000000230024002500264E
:10019000103A28BF78C1FBD8520728BF30C148BFEA
:1001A0000B607047662906F06D81642904F064864F
:1001B000782904F09D86002070471FB505F06AF984
:1001C00004000020002105F0CBFEE0601FBD10B54B
:1001D00010BD05F07BFA1146FFF7EFFF00F008F8BD
:1001E00005F099FA03B4FFF7F2FF03BC00F066FCD8
:1001F000002402F011FB4FF4A06002F097FB4FF4D3
:10020000165000F069FC00F053FA00F07BFA00F0A1
:10021000C1FA00F0F4FA00F011FC00F0EFFC472105
:1002200040F2F31000F0BEFD00F01DFE00F090FE65
:10023000F0E079480068C0437849C1F89001084669
:10024000D0F89401C043C1F894010846D0F8980151
:10025000C043C1F898010846D0F89C01C043C1F8DA
:100260009C016F48007830B101280ED0022817D0C9
:1002700003282BD11FE0002000F0F7FB6648006840
:10028000C0436649C1F8900120E0012000F0EDFB79
:100290006148001D0068C0436049C1F8940115E041
:1002A000022000F0E2FB5C4808300068C0435B4974
:1002B000C1F898010AE0032000F0D7FB56480C3043
:1002C0000068C0435549C1F89C0100BF00BF5548B4
:1002D000008800F4004060B352480088C0F30D006D
:1002E0005149088051A004F087FD0020544908803E
:1002F00012E05448524A1288815C534803F040F897
:1003000000BF4021504803F0A9F80128F9D14C481A
:100310000088401C4A4908804948008842490988A9
:100320008842E6DB49A004F067FD00203D490880D3
:100330002FE048480088401C46490880084600884D
:10034000052190FBF1F201FB120010B942A004F06C
:1003500053FD40480088032190FBF1F201FB12009D
:1003600010B943A004F048FD3A49088800EBD07169
:100370004910A0EB410149B92748001D006808B9A0
:10038000012000E000202449091D0860012002F03E
:1003900080FA00203D49086014E03C49098888B291
:1003A00000F0D7FC074605F021FF05462A460B461C
:1003B0003648016836A004F01FFD34480068401C30
:1003C00032490860314800680428E6DB00202F49E4
:1003D000086026A004F010FD1BE001F077F9041E70
:1003E00009D1214630A004F007FD01F06EF84FF46A
:1003F000FA7002F04EFA01F069F908B101F00CFF51
:10040000462002F046FA04480068C0430349C1F898
:100410009001E2E70DE70000900121420000214237
:100420000000002028000020080000200D0AC4FA67
:10043000B7A2CBCDB5C4CFFBCFA2CEAA3A0D0A004E
:100440000A000020D8000020004400400D0A0D0AD8
:10045000000000000C0000200D0AD5E3BDADD6C79A
:10046000D0F9B5E7C6F83450C2A9B1A30D0A00000F
:100470000D0AC7EBCAE4C8EBCAFDBEDD2CD2D4BB63
:10048000D8B3B5BCFCBDE1CAF80D0A0004000020D9
:10049000B2C9BCAF544144435F2564B5C4D6B53A34
:1004A0002566200D0A000000666C61672025640D3A
:1004B0000A000000704700BFFEE700BFFEE700BF74
:1004C000FEE700BFFEE770477047704770470000C7
:1004D0000CB50020019000906C48006840F480301A
:1004E0006A49086000BF6948006800F40030009065
:1004F0000198401C0190009818B90198B0F5A06FC0
:10050000F1D16248006800F4003010B10120009081
:1005100001E0002000900098012843D15C48006869
:1005200040F010005A4908600846006820F00300B7
:1005300008600846006840F00200086053484068C0
:10054000524948600846406848600846406840F4A0
:10055000806048600846406820F47C104860084687
:10056000406840F4E81048600846006840F0807039
:10057000086000BF4548006800F000700028F9D00E
:100580004248406820F003004049486008464068FF
:1005900040F00200486000BF3C48406800F00C009A
:1005A0000828F9D10CBD10B5FFF792FF10BD10B5AA
:1005B0003648006840F00100344908600846406849
:1005C00034490840314948600846006832490840CB
:1005D0002E4908600846006820F48020086008461C
:1005E000406820F4FE0048604FF41F008860FFF769
:1005F000DAFF4FF000602949086010BD10B50021F6
:1006000000200022214B5B6803F00C0121B104297A
:1006100006D0082928D107E0214B224C236027E08F
:100620001F4B204C236023E0184B5B6803F47010D1
:10063000164B5B6803F48032022303EB904022B92F
:10064000194B4343174C23600DE0104B5B6803F4D8
:10065000003323B1144B4343124C236003E0104B8F
:100660004343104C236003E00D4B0E4C236000BF4E
:1006700000BF064B5B68C3F303130C4CE15C094BF2
:100680001B68CB40074C236010BD000000100240E7
:10069000002002400000FFF8FFFFF6FE08ED00E03A
:1006A00000127A001000002000093D001400002014
:1006B00008B50121042002F0C3FCF020ADF80000D1
:1006C00010208DF8030003208DF8020069460448CD
:1006D00002F0FAF9F021024802F0A3FA08BD000086
:1006E0000008014008B50121102002F0A9FC0220F9
:1006F000ADF8000048208DF803006946224802F05A
:10070000E3F908BD0EB5FFF7EDFF0121084602F041
:1007100097FC0121022002F0EDFA02200190002056
:100720008DF808000C208DF8090001208DF80A00D2
:1007300001A803F0D3FB07208DF8000002208DF8FC
:10074000010003208DF8020001208DF803006846A7
:1007500002F0F1F80EBD10B5142002F09AF80B4823
:10076000006860B90A480078042803D100200849CD
:10077000087004E006480078401C05490870022013
:1007800003F023FC10BD00000010014004012242D0
:100790000000002008B50121042002F051FC0220D5
:1007A000ADF8000010208DF8030003208DF8020042
:1007B0006946044802F088F90221024802F033FA3F
:1007C00008BD00000008014008B50121302002F0FA
:1007D00037FC4FF4E050ADF8000048208DF80300DE
:1007E0006946904802F070F90420ADF800004820F6
:1007F0008DF8030069468C4802F066F908BD0EB515
:10080000FFF7E2FF0121084602F01AFC0A2102204C
:1008100002F070FA4FF48060019000208DF808001B
:100820000C208DF8090001208DF80A0001A803F0C2
:1008300055FB0B21022002F05DFA4FF4006001909D
:1008400000208DF808000C208DF8090001208DF89B
:100850000A0001A803F042FB0C21022002F04AFA30
:100860004FF48050019000208DF808000C208DF886
:10087000090001208DF80A0001A803F02FFB2820B1
:100880008DF8000002208DF801008DF80200012093
:100890008DF80300684602F04EF80221032002F0B2
:1008A00029FA0420019000208DF808000C208DF812
:1008B000090001208DF80A0001A803F00FFB0820B1
:1008C0008DF8000002208DF801008DF80200012053
:1008D0008DF80300684602F02EF80EBD10B5002416
:1008E0000A2001F0D6FF5148006808BB1AE0601CDE
:1008F000C4B24F480068C0434E49C1F890014FF45C
:10090000FA7001F0C6FF4B48D0F89001C043494946
:10091000C1F890014FF4FA7001F0BBFF052C01D132
:10092000002400E0E3E700BF4FF4806003F04DFBDC
:100930003E48001D006810BB1BE0601CC4B23C4870
:10094000001D0068C0433B49C1F894014FF4FA70A0
:1009500001F09FFF3748D0F89401C0433549C1F8F2
:1009600094014FF4FA7001F094FF052C01D100249A
:1009700000E0E2E700BF4FF4006003F026FB2B48E5
:100980000830006810BB1BE0601CC4B22848083067
:100990000068C0432749C1F898014FF4FA7001F08C
:1009A00078FF2448D0F89801C0432249C1F8980143
:1009B0004FF4FA7001F06DFF052C01D1002400E026
:1009C000E2E700BF4FF4805003F0FFFA10BD10B50E
:1009D00000240A2001F05DFF1748006808BB1BE0F7
:1009E000601CC4B212480C300068C0431149C1F801
:1009F0009C014FF4FA7001F04CFF0E48D0F89C01B6
:100A0000C0430C49C1F89C014FF4FA7001F041FF5A
:100A1000052C01D1002400E0E2E700BF042003F030
:100A2000D4FA10BD001001400014014028012242F8
:100A300090012142000021420881224208B5012193
:100A4000082002F0FDFAC020ADF8000010208DF85B
:100A5000030003208DF802006946154802F034F8BF
:100A6000C021134802F0DFF808BD28B90021114A5F
:100A70001160114AC2F89811012806D100210D4ACF
:100A8000116001210C4AC2F89811022806D10121F7
:100A9000084A11600021084AC2F89811032805D1BC
:100AA0000121044A1160044AC2F8981170470000FD
:100AB000000C01409C8121420080214200BF704710
:100AC00000BF4A4A128802F04002002AF9D0C2B29E
:100AD000464B1B1D1A80704710B586B00446012195
:100AE000042002F0ADFA0121480402F0B6FA042015
:100AF000ADF8140003208DF8160018208DF81700AB
:100B000005A93B4801F0E0FF0820ADF814000420DF
:100B10008DF8170005A9364801F0D6FF26208DF87C
:100B2000000003208DF801008DF8020001208DF8EF
:100B30000300684601F0FFFE01940020ADF80800B4
:100B4000ADF80A00ADF80C00ADF810000C20ADF8BF
:100B50000E0001A9254802F01AFB012240F225519E
:100B6000224802F0ACFB0121204802F09CFB06B0B9
:100B700010BD10B540F225511C4802F085FC10B3A1
:100B80001A4802F001FCC4B21A48008800F4004080
:100B9000C8B91848008800F4804060B10A2C03D01E
:100BA00000201449088020E01248008840F40040EA
:100BB0001049088019E00D2C06D10E48008840F439
:100BC00080400C49088010E00A480088C0F30D00FE
:100BD00009490C5407480088401C0649088008460B
:100BE0000088C72801DD0020088010BD00440040B7
:100BF0000008014028000020D800002000B591B076
:100C000001214FF4067002F01BFA0121084602F0A0
:100C10000AFA4FF4004002F077F95C4802F078FCE1
:100C20003020ADF8400000208DF8430010A958484E
:100C300001F04AFF0320ADF8400000208DF843008A
:100C400010A9544801F040FF00200B9001208DF8BE
:100C500030008DF831004FF460200D9000200E9090
:100C600004208DF83C000BA9484802F078FC0121D3
:100C7000464802F0A0FC072301220E21434802F05F
:100C800006FD072302220F21404802F000FD072342
:100C9000032208213D4802F0FAFC0723042209211F
:100CA0003A4802F0F4FC3C4802F05AFE37484C3017
:100CB00000903A48019000200290282003900020E4
:100CC000049080200590400006908000079020202E
:100CD00008900002099000200A9069462E4802F010
:100CE000E1FE01212C4802F008FF0121274802F013
:100CF0006DFC264802F081FC00BF244802F082FC13
:100D00000028FAD1214802F087FC00BF1F4802F0FA
:100D100088FC0028FAD101211C4802F08CFC11B09B
:100D200000BD70B5054600260121184802F083FC7D
:100D3000002407E0194800EBC40030F81500064411
:100D4000601CC4B20A2CF5DB0A20B6FBF0F080B2BE
:100D500070BD2DE9F05F04462046FFF7E2FF8246B2
:100D6000504605F031FB83464FF08B4105F06AFA9F
:100D7000814605F03BFA07464FF06632084B05F016
:100D800037F9054605F002F9BDE8F09F002401405F
:100D900000100140000C014008000240A0010020AA
:100DA00066660A407FB505460C460121022002F026
:100DB00054F9ADF80850ADF804400020ADF80A0031
:100DC000ADF8060001A9134803F0DCF90122114631
:100DD000104803F04EFD1D208DF8000000208DF816
:100DE000010003208DF8020001208DF80300684601
:100DF00001F0A1FD0121074803F020FD7FBD10B5E2
:100E00000121044803F0E3FF18B10121014803F078
:100E1000EFFF10BD0004004070B50546002405E05A
:100E2000601CC4B2C82C01DD002070BD0221434803
:100E300003F00FF80028F3D02946404802F0B6FF2F
:100E4000002405E0601CC4B2C82C01DD0020ECE7E2
:100E500001213A4802F0FDFF0028F3D0374802F0A4
:100E6000A7FFC0B2E1E700B587B00121082002F07A
:100E7000E7F80121880302F0F0F84FF48050ADF854
:100E8000180010208DF81B0003208DF81A0006A909
:100E90002B4801F019FE4FF48051294801F0C1FEA2
:100EA0004FF46040ADF8180018208DF81B000320A7
:100EB0008DF81A0006A9224801F006FE4FF46041A1
:100EC0001F4801F0AEFE0020ADF804004FF4827020
:100ED000ADF806000020ADF80800ADF80A00ADF846
:100EE0000C004FF40070ADF80E003020ADF810008B
:100EF0000020ADF812000720ADF8140001A90F483A
:100F000002F07EFE01210D4802F01FFFFF20FFF7D7
:100F100083FF07B000BD10B50446084800884FF6AF
:100F2000C7710840054908800846008820430880AA
:100F30000121024802F009FF10BD00000038004006
:100F4000000C014010B52021FE4801F06AFE10BDE2
:100F500008B54FF44870ADF8000010208DF803007C
:100F600003208DF802006946F64801F0ADFD4FF40C
:100F70007070ADF8000048208DF8030003208DF854
:100F800002006946F04801F09FFD4FF48070ADF813
:100F9000000048208DF8030003208DF80200694608
:100FA000EA4801F091FDFFF7CDFF0020E849087005
:100FB00008BD2DE9F04105460C4605F03F0040F024
:100FC000800604EB24203044C04300F0FF0827468D
:100FD0003046FFF721FFDF4908703812FFF71CFF8A
:100FE000DD4908600846006800020860F8B2FFF7B3
:100FF00013FFD94909680844D74908604046FFF7FC
:101000000BFFD6490870BDE8F0812DE9F041044698
:101010000D46260CA7B239460820FFF7CAFF314615
:101020000A20FFF7C6FF29460C20FFF7C2FFBDE8E4
:10103000F081002015E0CA4931F82010C94A128811
:1010400091420CD1C64901EB80018978C64A1170E2
:10105000C34901EB8001C978C44A117003E0411C07
:10106000C8B21128E7DB00BF112805DB0A21BE4A00
:1010700011700121BD4A1170704710B500244FF462
:101080004041FF20FFF7C1FFFF34B649086A4CF228
:101090000101FFF7BAFFB348006A0444B149486A46
:1010A0004CF20201FFF7B1FFAE48406A04444EF62D
:1010B00005410720FFF7A9FFE41D4EF61541012069
:1010C000FFF7A3FF641CA749886A4FF40041FFF7AC
:1010D0009CFFA448806A0444A249C86A48F20101FE
:1010E000FFF793FF9F48C06A04449E49086B48F28B
:1010F0000201FFF78AFF9B48006B04449949486B43
:1011000048F20301FFF781FF9648406B044495497C
:1011100088684EF61F41FFF778FF924880680444C4
:101120004EF61E410020FFF770FF00BF8D49C868D2
:101130004EF6AA01FFF769FF8A48C068044489494E
:1011400008694EF6AB01FFF760FF8648006904446A
:101150008449086C4EF65A11FFF757FF8148006C1E
:1011600004448049486D4EF65E11FFF74EFF7D48FE
:10117000406D04447B49886E4EF66211FFF745FFCF
:101180007848806E04447749086C4EF66511FFF785
:101190003CFF7448006C04447249486D4EF6661179
:1011A000FFF733FF6F48406D04446E49886E4EF67A
:1011B0006711FFF72AFF6B48806E04446949C86BCA
:1011C0004EF66811FFF721FF6648C06B044465497D
:1011D000086D4EF66911FFF718FF6248006D044470
:1011E0006049486E4EF66A11FFF70FFF5D48406E8A
:1011F00004444EF66B110020FFF707FF00BF59496A
:10120000886B4EF66C11FFF700FF5648806B044464
:101210005449C86C4EF66D11FFF7F7FE5148C06C8B
:1012200004445049086E4EF66E11FFF7EEFE4D482D
:10123000006E04444EF670110020FFF7E6FE00BF7A
:101240004EF671110020FFF7E0FE00BF4EF672115E
:101250000020FFF7DAFE00BF4EF673110020FFF703
:10126000D4FE00BF4EF674110020FFF7CEFE00BF83
:101270004EF675110020FFF7C8FE00BF3949886996
:101280004EF65411FFF7C1FE3648806904443549D3
:1012900048694EF61D41FFF7B8FE324840690444E4
:1012A0004EF623412A20FFF7B0FE2A344EF62441A1
:1012B0002A20FFF7AAFE2A344EF647412A20FFF7DC
:1012C000A4FE2A344EF648412A20FFF79EFE2A3417
:1012D0004EF6344142F21120FFF797FE42F2112000
:1012E00004444FF420414FF40040FFF78EFE04F514
:1012F00000444AF201014FF40040FFF786FE04F576
:101300000044C4F1FF344CF203012046FFF77DFE98
:1013100010BD30B5024645F2555012E00446C517DF
:1013200000EB1565C5F307234FF6FF7404EA0020B0
:1013300014785C400E4D35F814406040521C4C1E31
:10134000E1B217E0000C014000100140000801402C
:10135000380000202C000020300000202D0000204C
:101360003A000020F0010020340000203500002069
:10137000886400080029D1DC30BD00B54FF4C87086
:10138000D749088040F69800488046F2A810888027
:101390000020C880D3488860D348C860D34808611B
:1013A000D348486100208861FF20C861002008629E
:1013B000D048486241F2111088620020C862CE48CD
:1013C000086340F206404863002088630021C44857
:1013D000C1630164416481640020C149C864002183
:1013E000BF48016541658165C1650020BC4908664B
:1013F0000021BB4841668166C16601670020B8498B
:10140000A1F884003220486745F25E108867BB4827
:10141000C867BB48C1F880008621B148FFF779FF53
:10142000AF49A1F8860000BD70B50446A1B21020F6
:10143000FFF7BFFDA1B21220FFF7BBFDB148056861
:10144000A1B21420FFF7B5FDAE48008805EB0045BA
:10145000284670BD10B504462046FFF7E5FF10BDD5
:1014600010B5002400BF11E0A7480068A7498842D2
:101470000AD04FF44041A548FFF7C7FD4FF4404064
:10148000FFF7E8FFA0490860601CC4B20A2CEBDD3E
:10149000002407E004F5484081B20020FFF7B5FDC5
:1014A000601CC4B2382CF5DB10BD10B52021984863
:1014B00001F0B9FB4FF40071954801F0B2FB4FF415
:1014C0008071934801F0ADFB10BD10B591480078D4
:1014D000092871D2DFE800F0051025304952677104
:1014E000A300FFF7E2FF01208A490870084601784F
:1014F00089A003F081FCE0E04FF48051844801F0C2
:1015000092FBFFF7ADFF4FF48051814801F089FB5A
:10151000022080490870084601787FA003F06CFC27
:10152000CBE0FFF72AFF03207A49087008460178CC
:1015300079A003F061FCC0E04FF48051744801F0E1
:1015400072FB4FF440414FF02A40FFF75EFD4FF42D
:1015500080516F4801F065FB04206E490870084611
:1015600001786DA003F048FCA7E0052069490870E8
:101570000846017868A003F03FFC9EE04FF48051DC
:10158000634801F050FBFFF778FD4FF4805160484D
:1015900001F047FB06205F490870084601785EA00D
:1015A00003F02AFC89E007205A49087008460178B0
:1015B00059A003F021FC80E073E04FF480515448BF
:1015C00001F031FB4AF202010020FFF71EFD4AF252
:1015D00002010020FFF719FD4FF480514C4801F043
:1015E00020FB4FF48071514801F001FB70B10520E0
:1015F000484908704E480078022801DB0020087036
:101600004B480078401C4A49087002E008204149D4
:1016100008704048017840A003F0EEFB4DE04FF425
:1016200080513B4801F0FFFA4FF4C8702C49088004
:10163000FFF7FFFC4EF69F010020FFF7E6FC4EF699
:10164000A0010020FFF7E1FC4EF6A1010020FFF70A
:10165000DCFC4EF6A2010020FFF7D7FC4EF6A401F9
:101660000020FFF7D2FC4EF6A5010020FFF7CDFCCD
:101670004EF6A6010020FFF7C8FC01202D49087096
:101680000020244908704FF48051214801F0C9FA24
:101690000120284908701F4801781FA003F0ACFB07
:1016A0000BE000201B4908700120224908701948EE
:1016B000017819A003F0A0FB00BF00BF10BD1C48BB
:1016C0000078704700201B4908707047194800785F
:1016D000704710B5FFF7F6FF01F034F810BD0000B9
:1016E000F00100202B741500E52102004EEB0100F3
:1016F0000000F0FFFF8000030054007F400D030056
:1017000060900F003000002080000020FF000010DB
:10171000000C01407E000020696E697420737465BE
:1017200070203D2025640D0A0000000000080140E3
:1017300037000020380000200020AEE0002100EB40
:10174000800202EBC002F84B03EB820251610022DF
:1017500000EB800101EBC00103EB81018A6100EB2A
:10176000800101EBC00103EB8101CA6100EB800144
:1017700001EBC00103EB81010A6200EB800101EB88
:10178000C00103EB81014A62002100EB800202EB01
:10179000C00243F8221000EB800202EBC00203EB10
:1017A0008202516000EB800202EBC00203EB820276
:1017B000916000EB800202EBC00203EB8202D16079
:1017C00000EB800202EBC00203EB820211610F21E9
:1017D00000EB800202EBC00203EB820282F82810C9
:1017E0000F2200EB800101EBC00103EB810181F8C6
:1017F0002B2000EB800101EBC00103EB810181F89C
:101800002E2000EB800101EBC00103EB810181F888
:1018100031200A2200EB800101EBC00103EB8101C2
:1018200081F8292000EB800101EBC00103EB81016D
:1018300081F82C2000EB800101EBC00103EB81015A
:1018400081F82F2000EB800101EBC00103EB810147
:1018500081F83220052200EB800101EBC00103EB8F
:10186000810181F82A2000EB800101EBC00103EB2C
:10187000810181F82D2000EB800101EBC00103EB19
:10188000810181F8302000EB800101EBC00103EB06
:10189000810181F83320411CC8B203287FF74EAF85
:1018A00070472DE9F04104460E46002500275020E0
:1018B000B6FBF0F59D4850F82400A84206D99B4895
:1018C00050F82400C0F1FF30471903E0974850F862
:1018D00024002F1A964850F82400C119944840F863
:1018E00024103438006C10F5817F12D90021904803
:1018F0003438016400208E493439486300218C4813
:1019000034388163C16300208A49C8600860486038
:101910008860864840F824502A46214686A003F075
:101920006BFABDE8F08110B50122894B1A54804A48
:10193000283A22F81010002200EB800303EBC003CA
:10194000794C04EB83035A6100EB800202EBC00286
:10195000234653F822207F4B9A420DD200EB80029F
:1019600002EBC002234653F82220521C00EB8003F6
:1019700003EBC00344F8232010BD2DE9F04180465D
:101980000C46002500277448804505D97348806FB0
:10199000B8FBF0F085B208E06548283830F814004C
:1019A00018B129462046FFF7BEFF6D4830F81400F5
:1019B0004FF6FE7188420DDA6A4850F82400284438
:1019C000684941F82400664830F81400401C644916
:1019D00021F814005648283830F81400A84206DCD4
:1019E0005348283830F81400281A87B205E05048C8
:1019F000283830F81400401B87B20A2F5FDB04EB55
:101A0000840000EBC400484901EB80004069B0F558
:101A1000167F14D804EB840000EBC40001EB8000B7
:101A200090F8280068434FF47A7190FBF1F086B289
:101A3000B74243DB29462046FFF775FF3EE004EB43
:101A4000840000EBC400384901EB80004069B0F528
:101A5000167F1ED904EB840000EBC40001EB80006C
:101A60004069B0F5966F14D804EB840000EBC40015
:101A700001EB800090F8290068434FF47A7190FBE5
:101A8000F1F086B2B74219DB29462046FFF74BFF3B
:101A900014E004EB840000EBC400234901EB800058
:101AA00090F82A0068434FF47A7190FBF1F086B207
:101AB000B74203DB29462046FFF735FF00BF2A4621
:101AC000214629A003F098F9BDE8F08110B5012363
:101AD0001F4AD21C1354164A343A42F820100023ED
:101AE00000EB800202EBC0020F4C04EB8202936118
:101AF00000EB800202EBC002234603EB8202526835
:101B0000144B9A420FD200EB800202EBC002234634
:101B100003EB82025268521C00EB800303EBC0030C
:101B200004EB83035A6010BDC4020020940300201C
:101B3000AC020020D4030020C4DCC1BFCFE0C3FB53
:101B40003A25640909D6B5CAC73A2564200D0A00AA
:101B50003C040020EFFFFFEF82C40400F0010020EE
:101B60008C000020A4030020B5E7D1B9CFE0C3FB6F
:101B70003A25640909D6B5CAC73A2564200D0A007A
:101B80002DE9F04180460C4600250027FA488045A3
:101B900008D8FA4850F8240040B129462046FFF7FB
:101BA00095FF03E0F648C06FB8FBF0F5F54830F854
:101BB0001400B0F5FA5F0DDAF34850F82400284419
:101BC000F14941F82400EF4830F81400401CED4979
:101BD00021F81400E94850F82400A84205D8E74845
:101BE00030F82400281A87B204E0E44830F82400D2
:101BF000401B87B21E2F5CDB04EB840000EBC400AB
:101C0000E24901EB80008069B0F5167F13D804EB40
:101C1000840000EBC40001EB800090F82B006843C7
:101C20004FF47A71B0FBF1F6B74241D32946204612
:101C3000FFF74CFF3CE004EB840000EBC400D34909
:101C400001EB80008069B0F5167F1DD904EB84009C
:101C500000EBC40001EB80008069B0F5966F13D8EB
:101C600004EB840000EBC40001EB800090F82C0032
:101C700068434FF47A71B0FBF1F6B74218D32946A6
:101C80002046FFF723FF13E004EB840000EBC400C1
:101C9000BE4901EB800090F82D0068434FF47A7143
:101CA000B0FBF1F6B74203D329462046FFF70EFFFB
:101CB00000BF2A462146B6A003F09EF8BDE8F08199
:101CC0002DE9F04180460C4600250027B6488045A6
:101CD00008D8AA4850F8240048B129462046FFF702
:101CE000F5FE04E0A648D0F88000B8FBF0F5A54862
:101CF00030F81400B0F5FA5F0DDAA34850F824006C
:101D00002844A14941F824009E4830F81400401CA2
:101D10009C4921F81400994850F82400A84205D89D
:101D2000964830F82400281A87B204E0934830F827
:101D30002400401B87B21E2F5CDB04EB840000EB09
:101D4000C400924901EB80008069B0F5167F13D87A
:101D500004EB840000EBC40001EB800090F82B0042
:101D600068434FF47A71B0FBF1F6B74241D329468C
:101D70002046FFF7ABFE3CE004EB840000EBC40020
:101D8000824901EB80008069B0F5167F1DD904EB14
:101D9000840000EBC40001EB80008069B0F5966F11
:101DA00013D804EB840000EBC40001EB800090F832
:101DB0002C0068434FF47A71B0FBF1F6B74218D3A8
:101DC00029462046FFF782FE13E004EB840000EB77
:101DD000C4006E4901EB800090F82D0068434FF479
:101DE0007A71B0FBF1F6B74203D329462046FFF7DC
:101DF0006DFE00BF2A4621466CA002F0FDFFBDE843
:101E0000F08110B50123704A13545C4A143242F831
:101E10002010002300EB800202EBC0025B4C04EBBD
:101E20008202D36100EB800202EBC002234603EB87
:101E300082029268654B9A420FD200EB800202EB5D
:101E4000C002234603EB82029268521C00EB80031F
:101E500003EBC00304EB83039A6010BD2DE9F0414E
:101E600007460C460025A846444850F8240048B1CF
:101E700007F0004008B1F843471C4148406FB7FBEA
:101E8000F0F507E03D4850F8240018B129462046F7
:101E9000FFF7B7FF4E4830F81400B0F5FA5F0DDADF
:101EA0004C4850F8240028444A4941F82400484846
:101EB00030F81400401C464921F814002F48143013
:101EC00050F82400A84206D82C48143050F82400BA
:101ED000A5EB000805E02948143050F82400A0EBD9
:101EE0000508B8F1370F77D304EB840000EBC4008A
:101EF000264901EB8000C069B0F5167F13D804EBCA
:101F0000840000EBC40001EB800090F82E006843D1
:101F10004FF47A71B0FBF1F6B04572D329462046F2
:101F2000FFF76FFF6DE004EB840000EBC40017497E
:101F300001EB8000C069B0F5167F4ED904EB840038
:101F400000EBC40001EB8000C069B0F5966F44D887
:101F500004EB840000EBC40001EB800090F82F003C
:101F600068434FF47A71B0FBF1F6B04549D3294686
:101F70002046FFF746FF44E0400D030078020020B2
:101F8000F001002092000020B0030020C4020020D5
:101F9000B5E7C1F7CFE0C3FB3A25640909D6B5CA56
:101FA000C73A2564200D0A0060900F00C2A9B5E76A
:101FB000C1F7CFE0C3FB3A25640909D6B5CAC73AD1
:101FC0002564200D0A00000042040020EFFFFFEF0F
:101FD0009E000020C803002014E004EB840000EB06
:101FE000C400FE4901EB800090F8300068434FF4D4
:101FF0007A71B0FBF1F6B04503D329462046FFF7CE
:1020000000FF00BF2A462146F5A002F0F5FEBDE81C
:10201000F08110B50123F84A1354F84A11540023F3
:1020200000EB800202EBC002EC4C04EB8202136274
:1020300000EB800202EBC002234603EB8202D2686F
:10204000EF4B9A420FD200EB800202EBC002234614
:1020500003EB8202D268521C00EB800303EBC00347
:1020600004EB8303DA6010BD2DE9F04180460C4695
:1020700000250027E34880450AD9E048143830F8A5
:102080001400152804DBDD48203850F8240038B946
:10209000DA48005D40B129462046FFF7BAFF03E069
:1020A000D948B8FBF0F085B2D84830F814004FF6A4
:1020B000FE7188420DDAD64850F824002844D449ED
:1020C00041F82400D14830F81400401CCF4921F8D1
:1020D0001400CA48005DA84204DCC848005D281A04
:1020E00087B203E0C548005D401B87B2052F5FDB68
:1020F00004EB840000EBC400B84901EB8000006AE7
:10210000B0F5167F14D804EB840000EBC40001EB9B
:10211000800090F8310068434FF47A7190FBF1F041
:10212000C6B2B74243DB29462046FFF772FF3EE0C6
:1021300004EB840000EBC400A84901EB8000006AB6
:10214000B0F5167F1ED904EB840000EBC40001EB50
:102150008000006AB0F5966F14D804EB840000EBA1
:10216000C40001EB800090F8320068434FF47A71AC
:1021700090FBF1F0C6B2B74219DB29462046FFF7C3
:1021800048FF14E004EB840000EBC400934901EB2A
:10219000800090F8330068434FF47A7190FBF1F0BF
:1021A000C6B2B74203DB29462046FFF732FF00BF25
:1021B0002A46214697A002F01FFEBDE8F08170B5C7
:1021C00006460C461546072C23D2DFE804F0040926
:1021D0001318221D0E0029463046FFF7CEFB19E0EA
:1021E00029463046FFF7CCFC14E029463046FFF77D
:1021F00067FD0FE029463046FFF730FE0AE029462A
:102200003046FFF731FF05E031462846FFF749FB2E
:1022100000E000BF00BF70BD00B593B0002010907B
:102220001190129014210BA802F08EFE002008904D
:1022300009900A90059006900790019002900390F3
:1022400004907B48007812287ED2DFE800F07D09F8
:1022500027456383A1C5C4C3C2C1C0BFBEBDBCBB4B
:102260004FF48051734800F0DEFC4EF64410FFF747
:10227000F1F810904FF480516E4800F0D2FC6EA03F
:10228000109902F0B9FD002211461098FFF797FF50
:1022900067480078401C6649087047E24FF4805157
:1022A000644800F0C0FC4EF64510FFF7D3F81190DB
:1022B0004FF480515F4800F0B4FC62A0119902F025
:1022C0009BFD012200211198FFF779FF5848007803
:1022D000401C5749087029E24FF48051554800F0DE
:1022E000A2FC4EF64610FFF7B5F812904FF480515D
:1022F000504800F096FC56A0129902F07DFD022293
:1023000000211298FFF75BFF49480078401C4849BC
:1023100008700BE24FF48051464800F084FC4EF602
:102320000E10FFF797F80B904FF48051414800F0E2
:1023300078FC4AA00B9902F05FFD002201210B9866
:10234000FFF73DFF3A4800E0E9E10078401C3849DA
:102350000870EBE14FF48051364800F064FC4EF613
:102360000F10FFF777F80C904FF48051314800F0D0
:1023700058FC3DA00C9902F03FFD012211460C983B
:10238000FFF71DFF2A480078401C29490870CDE15D
:102390004FF48051274800F046FC4EF61010FFF72E
:1023A00059F80D904FF48051224800F03AFC31A0CA
:1023B0000D9902F021FD022201210D98FFF7FFFE89
:1023C0001B485DE08DE16EE14FE130E111E1F2E0AB
:1023D000D3E0B4E095E076E057E00000C4020020CE
:1023E000B9A6C2CACFE0C3FB3A25640909D6B5CA6B
:1023F000C73A2564200D0A004504002098020020F9
:10240000EFFFFFEFC8CCCC0C14AE470198000020C2
:10241000BC030020B9A6C2CAD2F2CBD8CFE0C3FB1E
:102420003A25640909D6B5CAC73A2564200D0A00C1
:1024300089000020000C0140524D5355413A257847
:1024400009000000524D5355423A2578090000001A
:10245000524D5355433A257809000000524D5349D7
:1024600031413A2578090000524D534931423A250D
:1024700078090000524D534931433A25780900004C
:102480000078401CB149087050E14FF48051B048C9
:1024900000F0C9FB4EF61110FEF7DCFF0F904FF471
:1024A0008051AB4800F0BDFBAAA00F9902F0A4FC3C
:1024B000042206210F98FFF782FEA4480078401CF2
:1024C000A249087032E14FF48051A14800F0ABFB03
:1024D0004EF6E800FEF7BEFF08904FF480519C488E
:1024E00000F09FFB9EA0089902F086FC00220221CA
:1024F0000898FFF764FE95480078401C93490870DF
:1025000014E14FF48051924800F08DFB4EF6E90043
:10251000FEF7A0FF09904FF480518D4800F081FB39
:1025200092A0099902F068FC012202210998FFF7A4
:1025300046FE86480078401C84490870F6E04FF457
:102540008051834800F06FFB4EF6EA00FEF782FFF1
:102550000A904FF480517E4800F063FB86A00A99F0
:1025600002F04AFC022211460A98FFF728FE77483B
:102570000078401C75490870D8E04FF480517448C9
:1025800000F051FB4EF6E400FEF764FF05904FF4B7
:1025900080516F4800F045FB7AA0059902F02CFCB1
:1025A000002203210598FFF70AFE68480078401CC6
:1025B00066490870BAE04FF48051654800F033FB7B
:1025C0004EF6E500FEF746FF06904FF48051604856
:1025D00000F027FB6EA0069902F00EFC01220321F9
:1025E0000698FFF7ECFD59480078401C57490870E1
:1025F0009CE04FF48051564800F015FB4EF6E60083
:10260000FEF728FF07904FF48051514800F009FB76
:1026100062A0079902F0F0FB022203210798FFF75E
:10262000CEFD4A480078401C484908707EE04FF4CF
:102630008051474800F0F7FA4EF69F00FEF70AFF78
:1026400001904FF48051424800F0EBFA56A00199F6
:1026500002F0D2FB002205210198FFF7B0FD3B48B4
:102660000078401C3949087060E04FF480513848C8
:1026700000F0D9FA4EF6A000FEF7ECFE02904FF4FF
:102680008051334800F0CDFA4AA0029902F0B4FB21
:10269000012205210298FFF792FD2C480078401C8A
:1026A0002A49087042E04FF48051294800F0BBFAF3
:1026B0004EF6A100FEF7CEFE03904FF48051244861
:1026C00000F0AFFA3EA0039902F096FB022205212A
:1026D0000398FFF774FD1D480078401C1B490870E3
:1026E00024E04FF480511A4800F09DFA4EF6A20003
:1026F000FEF7B0FE04904FF48051154800F091FAB7
:1027000032A0049902F078FB032205210498FFF718
:1027100056FD0E480078401C0C49087006E0012068
:102720000A4908702CA002F067FB00BF00BF13B07D
:1027300000BD014600207047014600207047354823
:1027400000787047012033490870704789000020E5
:10275000000C0140524D5349314E3A257809000092
:102760004441544150413A257809000044415441C4
:1027700050423A25780900004441544150433A25DB
:10278000780900005265674D4146413A25780900B5
:102790005265674D4146423A257809005265674DBA
:1027A0004146433A2578090052656741503A2578F9
:1027B0000900000052656742503A25780900000080
:1027C00052656743503A257809000000526567500A
:1027D000503A2578090000002323232323232323B1
:1027E00023232323232323232323232323232323B9
:1027F00023232323232323232323232323232323A9
:102800002323232323232323232323232323232398
:102810000D0A00008800002010B56FF0040000F0E1
:10282000D4F82E4800682E49B0FBF1F02D4908700D
:102830000846007800EB4001C1EBC0104FF6FF7175
:1028400001EAC0002849088010BD0146254A1278D7
:102850004A434FF0E0235A6100229A611A461269F6
:1028600042F001021A6100BF4FF0E022106900F04F
:1028700001021AB100F48032002AF5D04FF0E022B4
:10288000126922F001024FF0E0231A6100229A61DE
:1028900070470146144A12884A434FF0E0235A61B8
:1028A00000229A611A46126942F001021A6100BFC1
:1028B0004FF0E022106900F001021AB100F48032FA
:1028C000002AF5D04FF0E022126922F001024FF009
:1028D000E0231A6100229A61704700001000002076
:1028E00000127A00C0000020C20000200948804782
:1028F00009480047FEE7FEE7FEE7FEE7FEE7FEE7E2
:10290000FEE7FEE7FEE7FEE704480549054A064BF9
:1029100070470000AF05000831010008C80400201E
:10292000C80A0020C8060020C8060020314901431B
:10293000314A1160704770B5002100230F22C4781E
:1029400004B32D4C246804F4E064C4F5E064210A67
:10295000C1F10403CA40447804FA03F184781440B6
:1029600021430901254C0678A155047804F01F0580
:102970000124AC4005786D11AD0005F1E025C5F8E6
:10298000004109E0047804F01F050124AC401C4D0F
:102990000678761145F8264070BD1A4A0A4002436F
:1029A000154B1B1F1A60704739B1134A121D12686C
:1029B0000243114B1B1D1A6006E00F4A121D1268DC
:1029C00082430D4B1B1D1A607047042808D14FF03D
:1029D000E021096941F004014FF0E022116107E0B4
:1029E0004FF0E021096921F004014FF0E02211616C
:1029F000704700000000FA050CED00E000E400E084
:102A000080E100E080FFFF1F10B50446CC488442FF
:102A100008D10121042000F02DFB0021042000F04A
:102A200029FB46E0C748844208D10121082000F074
:102A300021FB0021082000F01DFB3AE0C24884423F
:102A400008D10121102000F015FB0021102000F01A
:102A500011FB2EE0BD48844208D10121202000F066
:102A600009FB0021202000F005FB22E0B848844249
:102A700008D10121402000F0FDFA0021402000F0A3
:102A8000F9FA16E0B348844208D10121802000F011
:102A9000F1FA0021802000F0EDFA0AE0AE4884420D
:102AA00007D10121801500F0E5FA0021A01500F002
:102AB000E1FA10BD10B50121084600F0DBFA002153
:102AC000012000F0D7FA10BD2DE9F04102460025A3
:102AD0000026002000230024002791F803C00CF0FA
:102AE0000F0591F803C00CF0100CBCF1000F03D0DF
:102AF00091F802C04CEA050591F800C0BCF1000F46
:102B000031D0146800202BE04FF0010C0CFA00F3D8
:102B1000B1F800C00CEA03069E4220D183004FF0BA
:102B20000F0C0CFA03F7BC4305FA03FC4CEA04044F
:102B300091F803C0BCF1280F06D14FF0010C0CFA3C
:102B400000FCC2F814C00AE091F803C0BCF1480FC1
:102B500005D14FF0010C0CFA00FCC2F810C0401C6B
:102B60000828D1D31460B1F800C0BCF1FF0F34DDE8
:102B7000546800202EE000F1080C4FF0010808FA1C
:102B80000CF3B1F800C00CEA03069E4221D1830089
:102B90004FF00F0C0CFA03F7BC4305FA03FC4CEAA8
:102BA000040491F803C0BCF1280F05D100F1080C12
:102BB00008FA0CF8C2F8148091F803C0BCF1480F71
:102BC00007D100F1080C4FF0010808FA0CF8C2F820
:102BD0001080401C0828CED35460BDE8F0814FF629
:102BE000FF710180022181700421C170704702468B
:102BF000002093680B400BB1012000E000207047DB
:102C00000146886880B2704702460020D3680B40B6
:102C10000BB1012000E0002070470146C86880B277
:102C2000704701617047416170470AB1016100E07E
:102C300041617047C16070474FF480320A4382613E
:102C40008161826182698269704702460020434B3C
:102C500018684FF68073184040EA021008433F4B53
:102C6000186070473E49C8617047F0B50A460023B6
:102C700000240021002500F00046B6F1004F02D1EB
:102C8000364EF16901E0354E7168C0F3034583B2F9
:102C900000F44016B6F5401F08D121F070612F4EA8
:102CA000766826F070662D4F7E6012E000F4801684
:102CB000B6F5801F06D1032606FA05F4A14341F0BC
:102CC000706106E0460D360103FA06F6B14341F0A5
:102CD000706122B1460D360103FA06F6314300F069
:102CE0000046B6F1004F02D11C4EF16101E01B4ECF
:102CF0007160F0BD30B500228B071C0F0F2303FA63
:102D000004F2164B08338C1053F824309343134CC1
:102D100008348D1044F8253023468C1053F82430A5
:102D20008C07240F00FA04F423430C4C08348D1054
:102D300044F8253030BD0A49DC3108607047000096
:102D400000080140000C0140001001400014014047
:102D500000180140001C014000200140000001401B
:102D600000002042DF48006840F00100DD490860B3
:102D700008464068DC490840DA494860084600686F
:102D8000DA490840D74908600846006820F48020E6
:102D900008600846406820F4FE0048604FF41F00B9
:102DA00088607047CF49096821F48031CD4A1160AD
:102DB0001146096821F480211160B0F5803F03D0ED
:102DC000B0F5802F0ED106E0C649096841F4803184
:102DD000C44A116007E0C349096841F4A021C14A0F
:102DE000116000E000BF00BF704710B5014600222F
:102DF000002300204A11012A02D1BA4C236806E0C0
:102E0000022A02D1B74C236A01E0B64C636A01F092
:102E10001F02012494401C400CB1012000E000205E
:102E200010BD38B5002000900024002500BF3120DF
:102E3000FFF7DBFF05460098401C00900098B0F5B6
:102E4000A06F01D0002DF2D03120FFF7CEFF08B1E6
:102E5000012400E00024204638BD01460020A14A9C
:102E6000106820F0F80040EAC10010607047A049E7
:102E700008607047024600209A4B586820F47C1086
:102E800042EA01031843974B586070479849086617
:102E9000704701460020934A506820F00300084321
:102EA000506070478F48406800F00C007047014642
:102EB00000208C4A506820F0F000084350607047B2
:102EC00001460020874A506820F4E06008435060C3
:102ED000704701460020834A506820F4605040EA61
:102EE000C1005060704729B17E4A527A02437D4B3F
:102EF0005A7204E07B4A527A82437A4B5A72704784
:102F00007B49D8310860704701460020754A5068F7
:102F100020F440400843506070470021714A20323D
:102F20001170704A82F82010012802D004280AD1BA
:102F300004E001216B4A2032117005E00521694A45
:102F40002032117000E000BF00BF7047694908607F
:102F500070476449096A0143624A116270476549D2
:102F600044390860704730B5002100220024002356
:102F70005C4D6D6805F00C0121B1042905D00829CC
:102F800023D105E05C4D056022E05B4D05601FE04C
:102F9000544D6D6805F47012524D6D6805F480341F
:102FA000022505EB92421CB9544D554305600BE0D8
:102FB0004C4D6D6805F400351DB1504D554305600D
:102FC00002E04D4D5543056002E04B4D056000BFEA
:102FD00000BF444D6D6805F0F0010909484D6B5C78
:102FE0000568DD4045603F4D6D6805F4E061090A04
:102FF000434D6B5C4568DD4085603A4D6D6805F476
:103000006051C90A3E4D6B5C4568DD40C560354D79
:103010006D6805F44041890B3A4D6B5CC568B5FBA2
:10302000F3F5056130BD29B12E4A526902432D4B9B
:103030005A6104E02B4A526982432A4B5A61704715
:1030400029B1284A92690243264B9A6104E0254A35
:1030500092698243234B9A61704729B1214AD26910
:103060000243204BDA6104E01E4AD26982431D4BC1
:10307000DA61704729B11B4AD2680243194BDA6002
:1030800004E0184AD2688243164BDA60704729B1CF
:10309000144A12690243134B1A6104E0114A12697F
:1030A0008243104B1A6170471249403908607047DB
:1030B0000F49C86470470B49C87170470948406A96
:1030C00040F0807007494862704701460020054A79
:1030D00092680A400AB1012000E0002070470149CF
:1030E00088727047001002400000FFF8FFFFF6FEF4
:1030F000000042428004424200127A0000093D0072
:10310000C4000020D400002010B50446FB488442CF
:1031100009D101218803FFF7ADFF00214FF4804062
:10312000FFF7A8FF32E0F648844209D101214804A4
:10313000FFF7ADFF00214FF40030FFF7A8FF25E0B7
:10314000F048844209D101218804FFF7A0FF002143
:103150004FF48020FFF79BFF18E0EB48844209D131
:103160000121C804FFF793FF00214FF40020FFF76F
:103170008EFF0BE0E548844208D101210805FFF7E6
:1031800086FF00214FF48010FFF781FF10BD2DE96D
:10319000F04786B005460E460024A24600BFA14671
:1031A0000027B08900B100BF2F462C8A4CF6FF7073
:1031B0000440F08804432C82AC894EF6F31004409E
:1031C000B08831890843718908430443AC81AC8AD3
:1031D0004FF6FF400440B0890443AC8201A8FFF7DA
:1031E000C2FEC648874202D1DDF810A001E0DDF83A
:1031F0000CA0A88900F4004040B10AEBCA0000EB23
:103200000A1031684900B0FBF1F807E00AEBCA0088
:1032100000EB0A1031688900B0FBF1F86420B8FBBC
:10322000F0F004012009642101FB1089A88900F451
:10323000004040B1322000EBC900B0FBF1F000F0DB
:103240000700044308E0322000EB09106421B0FBC2
:10325000F1F000F00F0004432C8106B0BDE8F087C8
:103260004FF41651016000218180C18001810C2141
:10327000418100218181704710B502460020108AEB
:103280004FF2FF0318400B884C8823438C8823435C
:10329000CC8823431843108210BD00210180418057
:1032A0008180C180704721B1828942F400528281BD
:1032B00004E082894DF6FF731A4082817047F0B5B1
:1032C0000346002400260025002040F66A17B94274
:1032D00000D100BF1846C1F3421401F01F060127B8
:1032E00007FA06F5012C01D10C3004E0022C01D1C3
:1032F000103000E014301AB107682F43076002E075
:103300000768AF430760F0BD1AB1838A0B4383821D
:1033100002E0838A8B4383827047028A4FF6F07300
:103320001A400282028A0A430282704782894FF25F
:10333000FF731A40828182890A438281704721B1DA
:10334000828942F00202828104E082894FF6FD7395
:103350001A4082817047028A4FF6DF731A40028258
:10336000028A0A430282704721B1028A42F48042F3
:10337000028204E0028A4BF6FF731A400282704711
:10338000C1F308028280704701468888C0F30800B4
:103390007047818941F0010181817047028BD2B26F
:1033A0000283028B42EA012202837047028B02F4FD
:1033B0007F420283028B0A430283704721B1828AD3
:1033C00042F02002828204E0828A4FF6DF731A40C4
:1033D0008282704721B1828A42F01002828204E028
:1033E000828A4FF6EF731A408282704721B1828A37
:1033F00042F00802828204E0828A4FF6F7731A4094
:103400008282704721B1828942F40042828103E0C6
:103410008289C2F30E028281704721B1828A42F40E
:103420000062828204E0828A4FF2FF731A40828235
:103430007047828A4FF6FB731A408282828A0A435F
:103440008282704721B1828A42F00202828204E0C5
:10345000828A4FF6FD731A4082827047024600202E
:10346000B1F5007F00D100BF13880B400BB10120E4
:1034700000E00020704701F40072B2F5007F00D137
:1034800000BFCA430280704770B502460024002383
:103490000025002040F66A16B14200D100BFC1F3FA
:1034A000421501F01F03012606FA03F3012D02D194
:1034B0009689334006E0022D02D1168A334001E09E
:1034C000968A33400C12012606FA04F4168834401A
:1034D00013B10CB1012000E0002070BD10B5002236
:1034E000002340F66A14A14200D100BF0A12012451
:1034F0009440A3B2DC43048010BD000000380140BA
:103500000044004000480040004C00400050004093
:1035100010B50446FA48844208D101214015FFF74E
:10352000A9FD00216015FFF7A5FD17E0F5488442CD
:1035300008D101210015FFF79DFD00212015FFF79F
:1035400099FD0BE0F048844208D10121C803FFF740
:1035500091FD00214FF40040FFF78CFD10BD30B508
:103560000246002000235068E84C20400D790C688A
:1035700044EA0524204350609068E54C2040D1E99E
:1035800002542C434D7944EA450420439060D06AAC
:1035900020F470000C7C641EE4B2234340EA035024
:1035A000D06230BD00210160017141718160C16054
:1035B00001210174704721B1826842F001028260EA
:1035C00003E0826822F001028260704721B18268C4
:1035D00042F48072826003E0826822F4807282602A
:1035E000704710B50023CBB21AB144681C43446045
:1035F00002E044689C43446010BD816841F00801CA
:1036000081607047014600208A6802F008020AB112
:10361000012000E000207047816841F004018160D2
:103620007047014600208A6802F004020AB10120B6
:1036300000E00020704721B1826842F4A00282605D
:1036400003E0826822F4A0028260704701460020F5
:103650008A6802F480020AB1012000E0002070476D
:1036600010B50A4600210023416821F46041531E31
:1036700041EA4331416010BD21B1426842F4006229
:10368000426003E0426822F4006242607047F0B595
:1036900004460D4600200021092D11DDE068A5F14A
:1036A0000A0606EB4607072606FA07F18843A5F146
:1036B0000A0606EB460603FA06F10843E0600CE052
:1036C000206905EB4507072606FA07F1884305EB55
:1036D000450603FA06F108432061072A0FDA606BFA
:1036E000561E06EB86071F2606FA07F18843561E6C
:1036F00006EB860605FA06F10843606322E00D2A10
:103700000FDA206BD61F06EB86071F2606FA07F195
:103710008843D61F06EB860605FA06F108432063A8
:1037200010E0E06AA2F10D0606EB86071F2606FAF6
:1037300007F18843A2F10D0606EB860605FA06F1AD
:103740000843E062F0BD21B1826842F480128260D9
:1037500003E0826822F48012826070470146C86CE0
:1037600080B2704766484C300068704721B14268AB
:1037700042F48062426003E0426822F48062426068
:10378000704721B1426842F48052426003E04268CF
:1037900022F48052426070470A460021816821F479
:1037A000E04111438160704721B1826842F40042D8
:1037B000826003E0826822F400428260704721B197
:1037C000826842F40212826003E0826822F40212EC
:1037D00082607047014600208A6802F400120AB134
:1037E000012000E000207047F0B504461546002097
:1037F00000220026092911DDE068A1F10A0707EB84
:10380000470C072707FA0CF29043A1F10A0707EBD0
:10381000470703FA07F21043E0600CE0206901EB70
:10382000410C072707FA0CF2904301EB410703FA1A
:1038300007F210432061A06BC0F30156EF1C06F1A4
:10384000010CA7EB0C0707EB870C1F2707FA0CF2FC
:103850009043EF1C06F1010CA7EB0C0707EB870761
:1038600001FA07F21043A063F0BD10B50A4600212B
:103870000023816B21F44011531E41EA03518163FF
:1038800010BD08B5002300930090009B0B440093EB
:10389000009B1A6008BD08B5024600200090009207
:1038A00001F12800009B184400900098006880B245
:1038B00008BD0A4600214168164B1940114341607A
:1038C00070474162826270470A460021416821F0D8
:1038D0001F0111434160704740B10949083109682F
:1038E00041F40001064A0832116007E0044908313A
:1038F000096821F40001024A083211607047000093
:103900000024014000280140003C0140FFFEF0FF80
:10391000FDF7F1FFFFFD3FFF0246002013680B405B
:103920000BB1012000E000207047CA4302607047DD
:1039300070B502460020002300240B125568CEB259
:1039400005EA060415681D4015B10CB1012000E020
:10395000002070BD00220A12D343036070470000AC
:1039600001684FF6FE721140016000210160416064
:103970008160C1608D49884208D18C490839496805
:1039800041F00F01894A083A51608AE087491431B1
:10399000884208D185490839496841F0F001834AD5
:1039A000083A51607DE081492831884208D17F4939
:1039B0000839496841F470617C4A083A516070E006
:1039C0007A493C31884208D178490839496841F43C
:1039D0007041764A083A516063E074495031884238
:1039E00008D172490839496841F470216F4A083A90
:1039F000516056E06D496431884208D16B490839FD
:103A0000496841F47001694A083A516049E06749E0
:103A10007831884208D165490839496841F07061B8
:103A2000624A083A51603CE06149884206D1011F70
:103A3000096841F00F01021F116032E05C49143146
:103A4000884208D15A49091F096841F0F001584AD3
:103A5000121F116025E056492831884208D1544987
:103A6000091F096841F47061514A121F116018E082
:103A70004F493C31884208D14D49091F096841F43A
:103A800070414B4A121F11600BE049495031884286
:103A900007D14749091F096841F47021444A121FA0
:103AA0001160704710B50022026847F6F0739A4320
:103AB0000C6A8B6823430C6923434C6923438C694C
:103AC0002343CC6923434C6A23438C6A23431A4320
:103AD0000260CB6843600B6883604B68C36010BDB5
:103AE0000021016041608160C160016141618161CB
:103AF000C161016241628162704721B1026842F096
:103B00000102026004E002684FF6FE731A40026090
:103B100070471AB103680B43036002E003688B43EC
:103B200003607047416070470146486880B2704743
:103B300001460020002201F080531BB11C4B083BC2
:103B40001A6802E0194B083B1A6802EA01030BB13C
:103B5000012000E00020704700F0805119B11449A5
:103B6000091F086002E011490839486070470146A2
:103B70000020002201F080531BB10D4B083B1A6856
:103B800002E00A4B083B1A6802EA01030BB101206C
:103B900000E00020704700F0805119B10449091F6E
:103BA000086002E001490839486070470800024097
:103BB0000804024010B50446BE48844208D10121E1
:103BC0008014FFF757FA0021A014FFF753FA16E00C
:103BD000B948844208D101210014FFF758FA0021A6
:103BE0002014FFF754FA0AE0B448844207D10121B7
:103BF000C013FFF74CFA0021E013FFF748FA10BD9D
:103C000010B50022028802F441520B884C882343ED
:103C10008C882343CC8823430C8923434C8923433A
:103C20008C892343CC8923431A430280838B4FF230
:103C3000FF74234083830B8A038210BD2DE9F04F6C
:103C400085B005460C464FF0000902274FF00008EA
:103C50004FF0010B0026B246A88B4FF240010840FE
:103C6000A88302202884B5F81C90A068022801D1FE
:103C700000BF38E0A08810B94FF0010B01E04FF011
:103C8000020B8D48854200D100E000BF6846FFF777
:103C90006AF9DDF800A0E088B0F5007F0AD14FEAAC
:103CA0001A2000EB80004000A168B0FBF1F0401D3D
:103CB00086B20BE04FEA4B10BAFBF0F000EB80004D
:103CC0004000A168B0FBF1F0401D86B20A20B6FBAF
:103CD000F0F606F00108A6EB0800C0F34F074FF618
:103CE000FF7000EA0828022F01DBFF2F02DD022708
:103CF0004FF00008E08840EA080038432884A08894
:103D0000A1890843618808432188084340F4006082
:103D100040EA0909A5F81C9005B0BDE8F08F002124
:103D2000018041808180C180018141818181C18187
:103D30000721018270470021018041808180C1807C
:103D40000221816000218181704721B1028842F007
:103D50004002028004E002884FF6BF731A400280DE
:103D6000704721B1828B42F48062828304E0828BAF
:103D70004FF6FF331A408283704730B5002400238A
:103D80000C110125A540ABB21AB185881D43858071
:103D900002E085889D43858030BD1AB183880B433E
:103DA000838002E083888B438380704781817047E2
:103DB0000146888970474FF6FF62914204D002881D
:103DC00042F48072028004E002884FF6FF631A40DA
:103DD0000280704721B1828842F00402828004E0B0
:103DE00082884FF6FB731A408280704702884FF238
:103DF000FF731A40028002880A43028070470188DC
:103E000041F480510180704721B1028842F4005290
:103E1000028004E002884DF6FF731A40028070476A
:103E200002460020012901D0108B00E0908A7047E3
:103E30000146088A7047B1F5804F04D1028842F4E8
:103E40008042028004E002884BF6FF731A40028031
:103E500070470246002013890B400BB1012000E09F
:103E600000207047CA4302817047F0B50246002027
:103E700000240023002501F00F070126BE40B4B244
:103E80000B1101269E40B3B2968806EA03051689F7
:103E9000264016B10DB1012000E00020F0BD10B5A4
:103EA000002201F00F040123A3409AB2D3430381FF
:103EB00010BD00000030014000380040003C0040D0
:103EC000002044490860091D0860091D0860091D9B
:103ED000086041483F4914310860704700213D495E
:103EE0008279002A3AD00A46126803689A430B4640
:103EF0001A600A1D126803689A430B1D1A60027942
:103F000011440A6803681A430A60324A0832126888
:103F100003689A432F4B08331A601A1D126803680E
:103F20009A432C4B0C331A604279102A0ED11A1F77
:103F3000126803681A43274B08331A601A1D126867
:103F400003681A43234B0C331A600DE02149427970
:103F500011440A6803681A430A6005E002791144B3
:103F60000A6803689A430A60704700210160017182
:103F70000C21417100218171704716491031096887
:103F80000143144A10321160704701460020114A63
:103F9000143212680A400AB1012000E00020704784
:103FA0000C49143108607047014600200022094B7B
:103FB0001B6803EA0102074B14331B680B4013B163
:103FC0000AB1012000E00020704702491431086066
:103FD0007047000000040140FFFF0F0010B50446C9
:103FE000FE48844208D10121C014FFF743F80021A4
:103FF000E014FFF73FF8C4E0B4F1804F08D101218D
:104000000846FFF744F800210120FFF740F8B8E028
:10401000F348844208D101210220FFF738F800213B
:104020000220FFF734F8ACE0EE48844208D10121C9
:104030000420FFF72CF800210420FFF728F8A0E067
:10404000E948844208D101210820FFF720F8002127
:104050000820FFF71CF894E0E448844208D10121CD
:104060001020FFF714F800211020FFF710F888E067
:10407000DF48844208D101212020FFF708F8002101
:104080002020FFF704F87CE0DA48844208D10121BF
:104090004014FEF7EFFF00216014FEF7EBFF70E025
:1040A000D548844209D10121C804FEF7E3FF00216D
:1040B0004FF40020FEF7DEFF63E0D048844209D1D0
:1040C00001210805FEF7D6FF00214FF48010FEF70E
:1040D000D1FF56E0CA48844209D101214805FEF7C4
:1040E000C9FF00214FF40010FEF7C4FF49E0C548A6
:1040F000844208D101214020FEF7C9FF0021402061
:10410000FEF7C5FF3DE0C048844208D10121802070
:10411000FEF7BDFF00218020FEF7B9FF31E0BB486C
:10412000844208D101218015FEF7B1FF0021A015BE
:10413000FEF7ADFF25E0B648844209D1012108040D
:10414000FEF798FF00214FF48030FEF793FF18E050
:10415000B048844209D101214804FEF78BFF0021B9
:104160004FF40030FEF786FF0BE0AB48844208D1E5
:1041700001218804FEF77EFF00214FF48020FEF726
:1041800079FF10BD00220288944B98420ED0994BC3
:1041900098420BD0B0F1804F08D0914B984205D097
:1041A000904B984202D0904B984204D14FF68F73B7
:1041B0001A404B881A438D4B984207D08C4B98423B
:1041C00004D04FF6FF431A40CB881A4302808B88F5
:1041D00083850B880385814B98420BD0854B984291
:1041E00008D08B4B984205D08A4B984202D08A4B1C
:1041F000984201D10B7A038601238382704770B500
:10420000002400220023058C4FF6FE7635400584FD
:10421000028C8388048B4FF68F752C40B51E2C4082
:104220000D882C43751E2A400D892A434D882A4348
:104230006A4DA8420BD06F4DA84208D0744DA842D9
:1042400005D0744DA84202D0734DA84213D14FF649
:10425000F7752A404D892A434FF6FB752A408D8811
:104260002A434FF6FF652B404FF6FF552B408D89B3
:104270002B43CD892B4383800483CD88858602849C
:1042800070BD70B5002400220023058C4FF6EF7638
:1042900035400584028C8388048B48F6FF752C40DA
:1042A0004FF6FF452C400D884FF6FF7606EA0525B0
:1042B0002C434FF6DF752A400D8906EA05152A437F
:1042C0004D8806EA05152A43444DA84202D0494DBF
:1042D000A8421DD14FF67F752A404D894FF6FF76D3
:1042E00006EA05152A434FF6BF752A408D8806EA6F
:1042F00005152A434FF6FF352B404FF2FF752B4033
:104300008D8906EA85052B43CD8906EA85052B4371
:1043100083800483CD880587028470BD70B5002436
:1043200000220023058C4FF6FF6635400584028C81
:104330008388848B4FF68F752C404FF6FC752C408C
:104340000D882C434FF6FF552A400D894FF6FF7616
:1043500006EA05252A434D8806EA05252A431F4D0E
:10436000A84202D0234DA8421DD14FF2FF752A402A
:104370004D894FF6FF7606EA05252A434FF6FF35AD
:104380002A408D8806EA05252A434EF6FF752B4004
:104390004DF6FF752B408D8906EA05152B43CD8917
:1043A00006EA05152B4383808483CD8885870284A4
:1043B00070BD70B5002200230024058C4EF6FF76F8
:1043C00035400584038C8488828B48F6FF752A402B
:1043D0004FF6FF452A400D8820E00000002C0140E8
:1043E0000004004000080040000C004000100040A5
:1043F0000014004000340140004C014000500140D6
:104400000054014000180040001C00400020004003
:104410000040014000440140004801404FF6FF7653
:1044200006EA05252A434DF6FF752B400D8906EA5D
:1044300005352B434D8806EA05352B43FA4DA84236
:1044400002D0FA4DA84208D14BF6FF752C408D8959
:104450004FF6FF7606EA85152C4384808283CD884B
:10446000A0F84050038470BD828B4FF2FF331A4096
:104470008283828B4FF6FF7303EA01231A43828300
:104480007047F0B50C461546002200210026078C27
:104490004EF6FF7C07EA0C070784828B018C4FF6EF
:1044A000FF7707EA043640F6FF473A404FF6FF77BA
:1044B00007EA05273A434FF6FF7707EA03373A43FF
:1044C000D94FB8420ED0D94FB8420BD0B0F1804F7F
:1044D00008D0D74FB84205D0D64FB84202D0D64FF9
:1044E000B84206D14DF6FF77394046F4805739433C
:1044F00005E047F6FF57394044F48057394382833B
:104500000184F0BD828B4FF6F3731A408283828B55
:104510000A4382837047F0B50C46154600220021FD
:104520000026078C4FF6FF6C07EA0C070784828B86
:10453000018C4FF6FF7707EA04264FF60C773A40D6
:104540004FF6FF7707EA03172F433A43B64FB842B7
:104550000ED0B64FB8420BD0B0F1804F08D0B44F58
:10456000B84205D0B34FB84202D0B34FB84206D1DB
:104570004FF6FF57394046F48077394305E04FF254
:10458000FF57394044F48077394382830184F0BD7A
:10459000028B4FF2FF331A400283028B4FF6FF73F8
:1045A00003EA01231A4302837047F0B50C4615460F
:1045B000002200210026078C4FF6EF7C07EA0C074B
:1045C0000784028B018C4FF6FF7707EA041640F64A
:1045D000FF473A404FF6FF7707EA03373A434FF673
:1045E000FF7707EA05273A438F4FB8420ED08F4F27
:1045F000B8420BD0B0F1804F08D08D4FB84205D0F3
:104600008C4FB84202D08C4FB84206D14FF6DF77BC
:10461000394046F01007394305E04FF65F773940DF
:1046200044F01007394302830184F0BD028B4FF63A
:10463000F3731A400283028B0A4302837047F0B57A
:104640000C46154600220021068C4FF6FE773E40B0
:104650000684028B018C4FF60C7632407E1C06EAF3
:1046600003162E433243704EB0420ED06F4EB0420E
:104670000BD0B0F1804F08D06D4EB04205D06D4EDA
:10468000B04202D06C4EB04206D14FF6FD763140BA
:1046900044F00106314305E04FF6F576314044F031
:1046A0000106314302830184F0BD70B505460C4616
:1046B0005D4885420ED05D4885420BD0B5F1804FF4
:1046C00008D05B48854205D05A48854202D05A48F6
:1046D000854200D100E000BF208850B92389A2881C
:1046E00061882846FFF7ABFFE1882846FFF79EFF69
:1046F00025E0208804280AD12389A28861882846D9
:10470000FFF753FFE1882846FFF742FF17E02088B4
:1047100008280AD12389A28861882846FFF7FBFE72
:10472000E1882846FFF7EEFE09E02389A288618828
:104730002846FFF7A6FEE1882846FFF795FE70BDE4
:104740002DE9F04105460C4600260127608808B98E
:10475000022600E00026A088012801D1022700E0FF
:1047600001272088A0B92389A28861882846FFF7FD
:1047700066FFE1882846FFF759FF23893A4631460C
:104780002846FFF712FFE1882846FFF701FF13E0F4
:104790002389A28861882846FFF707FFE188284619
:1047A000FFF7F6FE23893A4631462846FFF747FFD2
:1047B000E1882846FFF73AFFBDE8F0810A884B8878
:1047C0001A438B881A43CB881A430B891A434B89A7
:1047D0001A438B891A43A0F8442070474FF6FF71A3
:1047E000818000210180C1804180017270470021D9
:1047F000018041808180C180018141818181C181AD
:104800007047002101804180012181800021C18009
:10481000018170470021018041808180C180018138
:104820004181818170470000002C0140003401402B
:104830000004004000080040000C004021B1028844
:1048400042F00102028004E002884FF6FE731A4033
:104850000280704731B1B0F8442042F40042A0F821
:10486000442005E0B0F84420C2F30E02A0F8442032
:1048700070471AB183890B43838102E083898B439C
:10488000838170478182704741EA0203A0F8483073
:1048900070471AB183890B43838102E083898B437C
:1048A0008381704701894FF6F8721140018170478A
:1048B0000A46002101894FF68F7319401143018187
:1048C000704730B504460D4629462046FFF7F0FFF5
:1048D000208940F00700208130BD2DE9F0410446D9
:1048E0000D4616461F46602D06D13B460122314635
:1048F0002046FFF75AFE05E03B460122314620469E
:10490000FFF79DFE29462046FFF7D2FF208940F0A1
:1049100007002081BDE8F08130B50C4600210189F7
:10492000C9B24FF6FF7505EA032515432543294310
:10493000018130BD2DE9F04105460E4617469846E7
:10494000002443463A4631462846FFF7E5FF2C89C6
:104950004FF6F870044044F007044FF68F7004409F
:1049600044F070042C81BDE8F081F0B504460D469A
:1049700016461F463B46324629462046FFF7CCFFE7
:10498000208940F480402081F0BD018582827047FB
:104990000A46002101884FF68F73194011430180A8
:1049A0007047F0B50C4615461E4600210022002334
:1049B0000189028B038C4FF6F877394021434FF67B
:1049C000FC473A4040F201173A434FF6DD773B404F
:1049D0004FF6FF7707EA06172F433B430181028317
:1049E0000384F0BD0A460021018B4FF68F731940F6
:1049F0001143018370470A460021018B48F6FF737B
:104A000019404FF6FF7303EA0223194301837047ED
:104A10000A460021818B4FF68F7319401143818321
:104A200070470A460021818B48F6FF7319404FF604
:104A3000FF7303EA022319438183704721B102887F
:104A400042F08002028004E002884FF67F731A4031
:104A50000280704721B1828842F00402828004E023
:104A600082884FF6FB731A408280704721B182889A
:104A700042F00802828004E082884FF6F7731A4001
:104A80008280704721B1828842F00102828004E076
:104A900082884FF6FE731A40828070470A460021D2
:104AA000018B4FF6F77319401143018370470A4693
:104AB0000021018B4FF2FF7319404FF6FF7303EA99
:104AC00002231943018370470A460021818B4FF668
:104AD000F77319401143818370470A460021818B87
:104AE0004FF2FF7319404FF6FF7303EA0223194395
:104AF000818370470A460021018B4FF6FB731940F2
:104B00001143018370470A460021018B4FF6FF33A2
:104B100019404FF6FF7303EA0223194301837047DC
:104B20000A460021818B4FF6FB73194011438183A4
:104B300070470A460021818B4FF6FF3319404FF62C
:104B4000FF7303EA02231943818370470A46002159
:104B5000018B4FF67F7319401143018370470A465A
:104B60000021018BC1F30E014FF6FF7303EA02230C
:104B70001943018370470A460021818B4FF67F73EA
:104B800019401143818370470A460021818BC1F38C
:104B90000E014FF6FF7303EA022319438183704726
:104BA0000A460021018C4FF6FD7319401143018420
:104BB00070470A460021018C4FF6F77319401143E4
:104BC000018470470A460021018C4FF6DF731940BB
:104BD0004FF6FF7303EA02131943018470470A4634
:104BE0000021018C4FF67F7319404FF6FF7303EAE3
:104BF00002131943018470470A460021018C4FF6C5
:104C0000FF5319404FF6FF7303EA0223194301844F
:104C100070470A460021018C4FF2FF7319404FF68E
:104C2000FF7303EA02231943018470470A460021F7
:104C3000018C4DF6FF7319404FF6FF7303EA023300
:104C400019430184704730B5002301248C40A3B27E
:104C5000048C9C430484048C02FA01F5ADB22C430D
:104C6000048430BD30B5002304248C40A3B2048CEE
:104C70009C430484048C02FA01F5ADB22C430484F5
:104C800030BD70B5034600200024184618300125B9
:104C90008D40ACB21D8CA5431D8409B1082909D1F2
:104CA00000EB6100056825F0700505600568154397
:104CB00005600EE00D1FC5F34E052844056825F478
:104CC000E045056005684FF6FF7606EA02263543A3
:104CD000056070BD21B1028842F00202028004E04A
:104CE00002884FF6FD731A400280704721B1028896
:104CF00042F00402028004E002884FF6FB731A407F
:104D00000280704721B1828842F08002828004E0F4
:104D100082884FF67F731A408280704702884FF670
:104D2000F7731A40028002880A4302807047828823
:104D30004FF68F731A40828082880A4382807047C0
:104D400002894FF6F8731A40028102890A430281F0
:104D5000704702894FF67F731A40028102890A4325
:104D600002817047818470478185704781867047D2
:104D70000187704781877047A0F84010704702880C
:104D80004FF6FF431A40028002880A4302807047B0
:104D90000146888E70470146088F70470146888F0C
:104DA00070470146B1F8400070470146888C704753
:104DB0000146088D704702460020138A0B400BB154
:104DC000012000E000207047CA430282704730B5DE
:104DD0000246002000230024158A05EA0103958974
:104DE00005EA010413B10CB1012000E0002030BD40
:104DF000CA430282704770470FB4044910B503AA32
:104E0000029800F035FB10BC5DF814FB2400002074
:104E10002DE9F0410E460446002020622046E1685C
:104E2000884730B3252805D0D4E901219047206A6E
:104E3000401CF2E7E168204600278847050018D0AB
:104E4000A5F14100192802D820354FF400673246F9
:104E5000294620462760FBF7A5F940B1012804D078
:104E6000F61D26F007060836D8E7361DD6E7284691
:104E7000DAE7206ABDE8F0812DE9F041064600241A
:104E800010687529314616A510D0AFF300800028B0
:104E900002DA404213A507E031688A0701D512A55E
:104EA00002E0490704D511A5012401E0AFF3008019
:104EB00000210A2206F1240709E0B0FBF2FCB0FB56
:104EC000F2F302FB1C00303078541846491C0028CD
:104ED000F3D123462A463046BDE8F04100F05FB8E2
:104EE000000000002D0000002B000000200000004A
:104EF00070B504460D4621461068AFF30080218846
:104F0000090502D50F4A7A4402E00E4A7A440E326D
:104F1000002104F1240305E000F00F060009965D6E
:104F20005E54491C0028F7D120780023000704D5DF
:104F3000702D02D009B1022311322046BDE8704025
:104F400000F02DB87E1700004FF0000200B51346A8
:104F500094469646203922BFA0E80C50A0E80C5099
:104F6000B1F12001BFF4F7AF090728BFA0E80C504A
:104F700048BF0CC05DF804EB890028BF40F8042B43
:104F800008BF704748BF20F8022B11F0804F18BFB0
:104F900000F8012B704770477047704770472DE944
:104FA000F0470D4699469246044600F124080168F0
:104FB000880604D5E06921F01001216000E001209D
:104FC000A84201DD471B00E00027A1697A1902EB26
:104FD0000900081AA0612078C00602D42046AFF369
:104FE0000080002608E0D4E901211AF80600904765
:104FF000206A401C761C20624E45F4DB2078C006F7
:105000000AD52046AFF3008006E0D4E90121302024
:105010009047206A401C2062381EA7F10107F4DC8B
:1050200007E0D4E9012118F805009047206A401CE8
:105030002062281EA5F10105F3DC2046AFF30080B5
:105040002078000602D50220BDE8F0870120FBE7AA
:1050500070472DE9FF4F0C461E464FF0FF378BB0CF
:10506000D2E90001DDF860800A908A46C1F30A5552
:1050700005B93D46002108464FF00000BAF1000F87
:1050800000F4400005DA00EB80004FF4400101EA33
:1050900050004FEA9059B9F1010F00DDB9460A9866
:1050A00050EA4A000ED044F61050A5F2FF354543B1
:1050B0002F14B8F1000F1ED07542291E1EDDC9F154
:1050C00000021CE0B8F1010F4FF0000001D03021C8
:1050D00003E0F24305E02154401CB042FBDB3046C4
:1050E0000022002121540B99C1F80880C1E9002059
:1050F0000FB0BDE8F08FBD1B6D1CDEE74A4600DA3D
:10510000694206A800F068FA06AB93E8070003AB13
:1051100083E8070050460A9900F046FB8DE8070037
:10512000A0F500501F3800900398002D0ADD42F2D0
:105130001F014A460844002303A90390684600F073
:10514000AFFD09E0A0F500504A461F38002303A92F
:105150000390684600F0B9FD8DE807000004000CDC
:1051600003D04FF0FF30410800E01046B8F1000FC7
:1051700003D00022009215461EE0751E05D400F0F3
:105180008DF9303262556D1EF9D5B34601220843C0
:1051900002D000227F1C04E02078302801D10022B8
:1051A0007F1E002A099784D01DE0112D07DA00F038
:1051B00075F9303262556D1C50EA0102F5D1084391
:1051C00002D00098C8B10EE00021681E05E0235C03
:1051D000625C63542254401E491C8142F7DBAB469B
:1051E000A81B401E0990002004F80B000B98099A98
:1051F000C0F80880C0E9002B7AE711264FF00008BC
:1052000057E72DE9F04F88460446D21D22F00701EA
:1052100091B0D1E90001CDE90A0100F08DFE02460E
:105220000B98C00F01D02D2007E02068810701D521
:105230002B2002E0202101EAC000032A099001D0BE
:10524000072A05DB03464146204600F085F90BE1BD
:105250002078800601D5E06900E00620B8F1650FEE
:10526000814606D0B8F1660F18D0B8F1670F70D13B
:1052700031E00020B9F1110F009001DB112301E0B2
:1052800009F101030AAA01A90CA8FFF7E2FEDDE972
:105290000C70002609F10105834647E001204B46CA
:1052A00000904FF000470AAA01A90CA8FFF7D1FE11
:1052B000DDE90DB00C995D46002610B909F1010039
:1052C0000D18B9EB050003D4C0F1FF3609F1010553
:1052D000A5EB09002BE0B9F1010F01DA4FF001094C
:1052E0000020B9F1110F0090484601DD112300E0C4
:1052F00003460AAA01A90CA8FFF7ABFEDDE90C7072
:105300004D4600268346207800070AD4AB4500DAD4
:105310005D4601A8012D04DD411911F8011C302959
:1053200007D04F4502DA17F1040F04DA0120824654
:105330000FE06D1EEEE7002F02DCED1B3E4403E0A4
:10534000781CA84200DD7D1CB81B00F1010A4FF05B
:1053500000472078000703D4AA4501DB4FF0FF3A4D
:105360000021B7F1004F0DF143088DF8431024D010
:1053700002202B23002F01DA7F422D230A21021E57
:10538000A0F1010000DC5FB197FBF1FC97FBF1F2AB
:1053900001FB1C7C17460CF1300C08F801CDEEE740
:1053A000A8F1010003702188090501D5452100E01D
:1053B0006521A0F1010800F8011C09980FA9A1EBD3
:1053C0000807FF1D00B10120411901EBEA70A16936
:1053D0003844081A401EA0612078C00602D4204636
:1053E000AFF30080099828B1D4E901219047206AE1
:1053F000401C20622078C00622D52046AFF30080F2
:105400001EE0002E04DBB34502DD01A8805D00E054
:105410003020D4E901219047206A401C2062761C8C
:10542000AAF101005FEA000A0AD100F033F8C0686F
:105430000168405CD4E901219047206A401C206249
:10544000281EA5F10105DCDC07E0D4E9012118F8EC
:10545000010B9047206A401C2062381EA7F101070B
:10546000F3DC2046AFF30080032011B041E60000DA
:10547000074B70B50D467B4400F05BF804462846A8
:1054800000F01CF910B14FF0FF3070BD204670BD28
:1054900047B6FFFF004870478404002030B5B0F1E4
:1054A0000A024FEA900E71F100034EEA817EB0EBE2
:1054B0000E0061EB91014FEA101E4EEA017E10EBE7
:1054C0000E0041EB11114FEA102E4EEA016E10EB67
:1054D0000E0041EB11214FEA104E4EEA014E10EB47
:1054E0000E0041EB1141401841F100014FEAD0009C
:1054F00040EA41704FEAD10110EB80054FEA810488
:1055000044EA907444EB01046D1944EB0404521B0B
:10551000A3414FF0000348BF0A3200D530BD401C04
:1055200041F1000130BD000001694A1C02610878A8
:10553000704700B58FB0CDE90131002105910549D3
:105540007944CDE9031011466846FFF761FC0FB0BE
:1055500000BD0000E5FFFFFF2DE9F0411F460446B6
:1055600003260168072A01F4006004DB08B116A5D0
:1055700005E016A503E008B115A500E015A521F08A
:1055800010002060A069C01EA0610FB1401EA06184
:105590002046AFF300804FB1D4E90121384690474F
:1055A000206A401C2062C01C206206E0206AFAE7E4
:1055B000D4E9012115F8010B9047761EF8D2204658
:1055C000AFF30080BDE8F0814E414E006E616E0089
:1055D000494E4600696E66002DE9F0478146164641
:1055E0008AB0354878440DC88DE80D0032487844BB
:1055F000801C03AC0DC884E80D0041F69B300844C4
:10560000372190FBF1F290FBF1F5A5F1800501FB4C
:1056100012041B3C02D56442012000E00020DFF8A8
:1056200098A080460027FA44AAF1BE0A0EE0E007DF
:105630000AD03246684607EB470101230AEB810195
:1056400000F043FB8DE8070064107F1C002CEED1B6
:10565000194F7F44AE3F19E0E80715D007EB04105F
:105660000DF1180A90E80E008AE80E00C068F042BA
:1056700001D1981908903246012306A903A800F029
:1056800024FB03AB83E807006D10641C002DE3D1FD
:105690004FF0010332466946B8F1000F03A802D06B
:1056A00000F0FEFA01E000F010FBC9E90001C9F8C2
:1056B00008200AB0BDE8F08744110000007B00F02C
:1056C0008000704700487047640400207546FFF76B
:1056D000F9FFAE4605006946534620F007008546AF
:1056E00018B020B5FDF710F9BDE820404FF00006D6
:1056F0004FF000074FF000084FF0000B21F00701BA
:10570000AC46ACE8C009ACE8C009ACE8C009ACE8FC
:10571000C0098D46704710B50446AFF3008020469F
:10572000BDE81040FAF75EBD4FF0013C50F8042B85
:1057300051F8043B9A4221D1A2EB0C03934313EAA4
:10574000CC1317D150F8042B51F8043B9A4215D1D1
:10575000A2EB0C03934313EACC130BD150F8042BA8
:1057600051F8043B9A4209D1A2EB0C03934313EA8C
:10577000CC13DBD04FF00000704700BFD01A01BA45
:10578000B1FA81F101F0180122FA01F0CB40C1F128
:105790002001DBB2C0B2C01A2CFA01F3D11A914336
:1057A00011EAC311E6D170475FEA400C08BF91F0DF
:1057B000000F4FEA8C234FEAC12243EA51514FEACE
:1057C0001C5018BF00F5F0404FEA300018BF41F000
:1057D00000415FEA6C5C00F02980BCF1FF3F08BF2C
:1057E00040F080407047130C06BF12044FF0100CBD
:1057F0004FF0000C130E04BF12020CF1080C130F33
:1058000004BF12010CF1040C930F04BF92000CF1C1
:10581000020CD30F04BF52000CF1010C11464FF0E3
:105820000002A0F11F00A0EB0C00704711F0004F28
:1058300008BF704731F000413FF4D5AF0B0C06BFF5
:1058400009044FF0100C4FF0000C0B0E04BF0902BE
:105850000CF1080C0B0F04BF09010CF1040C8B0FA9
:1058600004BF89000CF1020CCB0F04BF49000CF1FE
:10587000010CCCF12003A0EB0C0022FA03F302FA96
:105880000CF241EA030100F10100704720F07F4C67
:1058900080EA030023F07F47ACEB070303F57C535A
:1058A00000F0004003F1FF032DE980494FEA154B5A
:1058B00009B44FEA144325EA0B4E24EA03480FF2D9
:1058C000042606EB132749083E785FEA320203FB01
:1058D0000667C7F5000707FB06F64FEA54374FEA9D
:1058E000D64606F1020607FB066CCCF1005C4FEAD7
:1058F0001C472CEA074C07FB06F40CFB06F504EBEF
:1059000015464FEA961634BF00204FF000404FEA8C
:10591000D13706FB07FC4FEA1C4C0CFB0BF7D21BE4
:1059200003FB0CF761EB07010CFB0EF7B0EB074034
:1059300072EB17420CFB08F734BFA2EB0742B2EB45
:10594000074261EB17414FEA0C444FEA910706FB0F
:1059500007FC4FEA1C4C0CFB0BF7B0EBC74072EB9B
:10596000573203FB0CF734BFA2EBC742B2EBC7427E
:1059700061EB57310CFB0EF7B0EBC70072EB5772BF
:105980000CFB08F734BFA2EBC702B2EBC70261EB16
:105990005771039F4FEA816141EA921104EBCC04F5
:1059A0004FEAD1374FEA826206FB07FC42EA9012C7
:1059B0004FEA80604FEA1C4C0CFB0BF7D21B03FB39
:1059C0000CF761EB07010CFB0EF7B0EB074072EB35
:1059D00017420CFB08F734BFA2EB0742B2EB0742B9
:1059E00061EB17414FEA8C554FEA910704EB9C2479
:1059F00006FB07FC4FEA1C4C0CFB0BF7B0EBC74057
:105A000072EB573203FB0CF734BFA2EBC742B2EB89
:105A1000C74261EB57310CFB0EF7B0EBC70072EBDE
:105A200057720CFB08F734BFA2EBC702B2EBC702F8
:105A300061EB577115EB4C254FEA816141EA9211F8
:105A40004FEA82624FEAD13742EA901206FB07FC26
:105A500044F100044FEA80604FEA1C4C0CFB0BF74A
:105A6000D21B03FB0CF761EB07010CFB0EF7B0EB4D
:105A7000074072EB17420CFB08F734BFA2EB07425A
:105A8000B2EB074261EB174115EB1C154FEA813170
:105A900041EA92414FEA823242EA90424FEA803034
:105AA0004FEA0C7644F1000448EA03434EEA0B48FF
:105AB0004FF0000EB2EB080C71EB030724BF6246F7
:105AC00039464EEB0E0E4FF0000B00185241494183
:105AD0004BEB0B0BB2EB080C71EB03077BF1000BEC
